:100163001200031201F67BFF7A027902750D037503
:100173000EE8E4FDFC1200B47BFF7A027905750DED
:1001830003750EE87DF47C011200B47BFF7A0179DC
:10019300E7750D00750E31E4FDFC1200B41201FF8A
:0501A30012011480FBB5
:0401FB004387012213
:1001A800EF75F008A42421F8760008760008760098
:1001B800EF75F008A42424F8E4F608F6EF75F008C3
:1001C800A42426F8E4F608F6EF75F008A42428F825
:0301D800E4F62228
:03002B0002002EA2
:10002E00C0E0C0F0C0D075D000C000C002C004C097
:03003E0005C007F3
:10004100C2CFE4FFEF75F008A42421F808E6FA080E
:10005100E6AC024C6046EF75F008A42424F8E6FCF7
:1000610008E64C7028EF75F008A42428F806EF750F
:10007100F008A42426F8E6FC08E6FD4C601EEF75A6
:10008100F008A42424F8A60408A605800FEF75F053
:1000910008A42424F808E616187001160FBF08A456
:0200A100B2A704
:1000A300D007D005D004D002D000D0D0D0F0D0E01B
:0100B300321A
:100003007508FC750967E4FEAF061201A80EBE0869
:10001300F7E4F5C8E508F5CDE508F5CB8509CC850A
:0600230009CAD2ADD2CAE9
:0100290022B4
:0301FF00D2AF225A
:10011400E4F508E50875F008A42428F8E6D394006B
:100124004031E50875F008A42421F808E6FA08E649
:10013400F91201F0E50875F008A42428F816E5087A
:1001440075F008A42426F8E6FE08E64E7005AF080C
:0F0154001201A80508E508C3940840B70201FB93
:0600B4008B088A09890A8D
:1000BA00E4FFEF75F008A42421F808E6FA08E64AF6
:1000CA006009EFC3940850030F80E7BF08037FFF5E
:1000DA0022AA09A90AEF75F008A42421F8A608089B
:1000EA00A60208A601EF75F008A42424F8A60408BD
:1000FA00A605EF75F008A42426F8A60D08A60EEFAB
:09010A0075F008A42428F8E4F6BD
:0101130022C9
:0501F600C201C200225D
:03020200D2002205
:03020500C2002212
:0901E700B201A2008201929722EC
:030000000201DB1F
:0C01DB00787FE4F6D8FD758160020163B6
:0601F0008A838982E4739A
:00000001FF
