:100195001200037BFF7A0179C2754D00754E14E498
:0D01A500FDFC1200B412002812011380FBB3
:0401BE004387012250
:10016200EF75F008A42408F87600087600087600F7
:10017200EF75F008A4240BF8E4F608F6EF75F00822
:10018200A4240DF8E4F608F6EF75F008A4240FF89D
:03019200E4F6226E
:03002B0002002EA2
:10002E00C0E0C0F0C0D075D000C000C002C004C097
:03003E0005C007F3
:10004100C2CFE4FFEF75F008A42408F808E6FA0827
:10005100E6AC024C6046EF75F008A4240BF8E6FC10
:1000610008E64C7028EF75F008A4240FF806EF7528
:10007100F008A4240DF8E6FC08E6FD4C601EEF75BF
:10008100F008A4240BF8A60408A605800FEF75F06C
:1000910008A4240BF808E616187001160FBF08A46F
:0200A100B2A704
:1000A300D007D005D004D002D000D0D0D0F0D0E01B
:0100B300321A
:10000300E4FEAF061201620EBE08F7E4F5C875CD33
:0E001300FC75CBFC75CC6775CA67D2ADD2CA3E
:0100210022BC
:03002800D2AF2232
:10011300E4F548E54875F008A4240FF8E6D3940005
:100123004031E54875F008A42408F808E6FA08E623
:10013300F9120022E54875F008A4240FF816E548E3
:1001430075F008A4240DF8E6FE08E64E7005AF48E6
:0F0153001201620548E548C3940840B70201BE97
:0600B4008B488A49894ACD
:1000BA00E4FFEF75F008A42408F808E6FA08E64A0F
:1000CA006009EFC3940850030F80E7EF64086038B3
:1000DA00AA49A94AEF75F008A42408F8A64808A670
:1000EA000208A601EF75F008A4240BF8A60408A6D6
:1000FA0005EF75F008A4240DF8A64D08A64EEF7575
:08010A00F008A4240FF8E4F64C
:0101120022CA
:0301C200B29722CF
:030000000201B248
:0C01B200787FE4F6D8FD75814E020195BF
:060022008A838982E47369
:00000001FF
